{
  "_format": "hh-sol-artifact-1",
  "contractName": "CryptoVault",
  "sourceName": "contracts/CryptoVault.sol",
  "abi": [
    {
      "inputs": [
        {
          "internalType": "address",
          "name": "_token",
          "type": "address"
        }
      ],
      "stateMutability": "nonpayable",
      "type": "constructor"
    },
    {
      "anonymous": false,
      "inputs": [
        {
          "indexed": true,
          "internalType": "address",
          "name": "user",
          "type": "address"
        },
        {
          "indexed": false,
          "internalType": "uint256",
          "name": "amount",
          "type": "uint256"
        }
      ],
      "name": "Deposited",
      "type": "event"
    },
    {
      "anonymous": false,
      "inputs": [
        {
          "indexed": true,
          "internalType": "address",
          "name": "previousOwner",
          "type": "address"
        },
        {
          "indexed": true,
          "internalType": "address",
          "name": "newOwner",
          "type": "address"
        }
      ],
      "name": "OwnershipTransferred",
      "type": "event"
    },
    {
      "anonymous": false,
      "inputs": [
        {
          "indexed": true,
          "internalType": "address",
          "name": "user",
          "type": "address"
        },
        {
          "indexed": false,
          "internalType": "uint256",
          "name": "amount",
          "type": "uint256"
        },
        {
          "indexed": false,
          "internalType": "uint256",
          "name": "reward",
          "type": "uint256"
        }
      ],
      "name": "StakingEnded",
      "type": "event"
    },
    {
      "anonymous": false,
      "inputs": [
        {
          "indexed": true,
          "internalType": "address",
          "name": "user",
          "type": "address"
        },
        {
          "indexed": false,
          "internalType": "uint256",
          "name": "amount",
          "type": "uint256"
        }
      ],
      "name": "StakingStarted",
      "type": "event"
    },
    {
      "anonymous": false,
      "inputs": [
        {
          "indexed": true,
          "internalType": "address",
          "name": "user",
          "type": "address"
        },
        {
          "indexed": false,
          "internalType": "uint256",
          "name": "amount",
          "type": "uint256"
        }
      ],
      "name": "Withdrawn",
      "type": "event"
    },
    {
      "inputs": [
        {
          "internalType": "uint256",
          "name": "_amount",
          "type": "uint256"
        },
        {
          "internalType": "uint256",
          "name": "_duration",
          "type": "uint256"
        }
      ],
      "name": "calculateReward",
      "outputs": [
        {
          "internalType": "uint256",
          "name": "",
          "type": "uint256"
        }
      ],
      "stateMutability": "view",
      "type": "function"
    },
    {
      "inputs": [
        {
          "internalType": "uint256",
          "name": "_amount",
          "type": "uint256"
        }
      ],
      "name": "deposit",
      "outputs": [],
      "stateMutability": "nonpayable",
      "type": "function"
    },
    {
      "inputs": [],
      "name": "endStaking",
      "outputs": [],
      "stateMutability": "nonpayable",
      "type": "function"
    },
    {
      "inputs": [
        {
          "internalType": "address",
          "name": "_user",
          "type": "address"
        }
      ],
      "name": "getVaultInfo",
      "outputs": [
        {
          "components": [
            {
              "internalType": "uint256",
              "name": "balance",
              "type": "uint256"
            },
            {
              "internalType": "uint256",
              "name": "stakedAmount",
              "type": "uint256"
            },
            {
              "internalType": "uint256",
              "name": "stakingStartTime",
              "type": "uint256"
            },
            {
              "internalType": "bool",
              "name": "isStaking",
              "type": "bool"
            }
          ],
          "internalType": "struct CryptoVault.Vault",
          "name": "",
          "type": "tuple"
        }
      ],
      "stateMutability": "view",
      "type": "function"
    },
    {
      "inputs": [],
      "name": "minimumStakingPeriod",
      "outputs": [
        {
          "internalType": "uint256",
          "name": "",
          "type": "uint256"
        }
      ],
      "stateMutability": "view",
      "type": "function"
    },
    {
      "inputs": [],
      "name": "owner",
      "outputs": [
        {
          "internalType": "address",
          "name": "",
          "type": "address"
        }
      ],
      "stateMutability": "view",
      "type": "function"
    },
    {
      "inputs": [],
      "name": "renounceOwnership",
      "outputs": [],
      "stateMutability": "nonpayable",
      "type": "function"
    },
    {
      "inputs": [
        {
          "internalType": "uint256",
          "name": "_newPeriod",
          "type": "uint256"
        }
      ],
      "name": "setMinimumStakingPeriod",
      "outputs": [],
      "stateMutability": "nonpayable",
      "type": "function"
    },
    {
      "inputs": [
        {
          "internalType": "uint256",
          "name": "_newRate",
          "type": "uint256"
        }
      ],
      "name": "setStakingRewardRate",
      "outputs": [],
      "stateMutability": "nonpayable",
      "type": "function"
    },
    {
      "inputs": [],
      "name": "stakingRewardRate",
      "outputs": [
        {
          "internalType": "uint256",
          "name": "",
          "type": "uint256"
        }
      ],
      "stateMutability": "view",
      "type": "function"
    },
    {
      "inputs": [
        {
          "internalType": "uint256",
          "name": "_amount",
          "type": "uint256"
        }
      ],
      "name": "startStaking",
      "outputs": [],
      "stateMutability": "nonpayable",
      "type": "function"
    },
    {
      "inputs": [],
      "name": "token",
      "outputs": [
        {
          "internalType": "contract IERC20",
          "name": "",
          "type": "address"
        }
      ],
      "stateMutability": "view",
      "type": "function"
    },
    {
      "inputs": [],
      "name": "totalStaked",
      "outputs": [
        {
          "internalType": "uint256",
          "name": "",
          "type": "uint256"
        }
      ],
      "stateMutability": "view",
      "type": "function"
    },
    {
      "inputs": [
        {
          "internalType": "address",
          "name": "newOwner",
          "type": "address"
        }
      ],
      "name": "transferOwnership",
      "outputs": [],
      "stateMutability": "nonpayable",
      "type": "function"
    },
    {
      "inputs": [
        {
          "internalType": "address",
          "name": "",
          "type": "address"
        }
      ],
      "name": "vaults",
      "outputs": [
        {
          "internalType": "uint256",
          "name": "balance",
          "type": "uint256"
        },
        {
          "internalType": "uint256",
          "name": "stakedAmount",
          "type": "uint256"
        },
        {
          "internalType": "uint256",
          "name": "stakingStartTime",
          "type": "uint256"
        },
        {
          "internalType": "bool",
          "name": "isStaking",
          "type": "bool"
        }
      ],
      "stateMutability": "view",
      "type": "function"
    },
    {
      "inputs": [
        {
          "internalType": "uint256",
          "name": "_amount",
          "type": "uint256"
        }
      ],
      "name": "withdraw",
      "outputs": [],
      "stateMutability": "nonpayable",
      "type": "function"
    }
  ],
  "bytecode": "0x60806040526005805562093a806006553480156200001c57600080fd5b5060405162001ebe38038062001ebe833981810160405281019062000042919062000197565b60016000819055506200006a6200005e620000b260201b60201c565b620000ba60201b60201c565b80600360006101000a81548173ffffffffffffffffffffffffffffffffffffffff021916908373ffffffffffffffffffffffffffffffffffffffff1602179055505062000211565b600033905090565b6000600160009054906101000a900473ffffffffffffffffffffffffffffffffffffffff16905081600160006101000a81548173ffffffffffffffffffffffffffffffffffffffff021916908373ffffffffffffffffffffffffffffffffffffffff1602179055508173ffffffffffffffffffffffffffffffffffffffff168173ffffffffffffffffffffffffffffffffffffffff167f8be0079c531659141344cd1fd0a4f28419497f9722a3daafe3b4186f6b6457e060405160405180910390a35050565b6000815190506200019181620001f7565b92915050565b600060208284031215620001aa57600080fd5b6000620001ba8482850162000180565b91505092915050565b6000620001d082620001d7565b9050919050565b600073ffffffffffffffffffffffffffffffffffffffff82169050919050565b6200020281620001c3565b81146200020e57600080fd5b50565b611c9d80620002216000396000f3fe608060405234801561001057600080fd5b50600436106101005760003560e01c8063817b1cd211610097578063b6b55f2511610066578063b6b55f2514610278578063b7d6851914610294578063f2fde38b146102b0578063fc0c546a146102cc57610100565b8063817b1cd2146101d95780638da5cb5b146101f757806390229af714610215578063a622ee7c1461024557610100565b80634f3fc2df116100d35780634f3fc2df14610177578063715018a614610195578063762b1c921461019f5780637ebed54c146101bb57610100565b806313ed084614610105578063246d95ca146101355780632507190a146101515780632e1a7d4d1461015b575b600080fd5b61011f600480360381019061011a9190611367565b6102ea565b60405161012c91906119a9565b60405180910390f35b61014f600480360381019061014a919061133e565b61031c565b005b610159610371565b005b6101756004803603810190610170919061133e565b6106be565b005b61017f6109be565b60405161018c91906119a9565b60405180910390f35b61019d6109c4565b005b6101b960048036038101906101b4919061133e565b6109d8565b005b6101c3610cec565b6040516101d091906119a9565b60405180910390f35b6101e1610cf2565b6040516101ee91906119a9565b60405180910390f35b6101ff610cf8565b60405161020c9190611778565b60405180910390f35b61022f600480360381019061022a91906112ec565b610d22565b60405161023c919061198e565b60405180910390f35b61025f600480360381019061025a91906112ec565b610db4565b60405161026f94939291906119ed565b60405180910390f35b610292600480360381019061028d919061133e565b610df1565b005b6102ae60048036038101906102a9919061133e565b610fde565b005b6102ca60048036038101906102c591906112ec565b611033565b005b6102d46110b7565b6040516102e191906117f3565b60405180910390f35b600063bbf81e0082600554856103009190611aca565b61030a9190611aca565b6103149190611a99565b905092915050565b6103246110dd565b60008111610367576040517f08c379a000000000000000000000000000000000000000000000000000000000815260040161035e9061190e565b60405180910390fd5b8060068190555050565b61037961115b565b600260003373ffffffffffffffffffffffffffffffffffffffff1673ffffffffffffffffffffffffffffffffffffffff16815260200190815260200160002060030160009054906101000a900460ff16610408576040517f08c379a00000000000000000000000000000000000000000000000000000000081526004016103ff9061194e565b60405180910390fd5b600654600260003373ffffffffffffffffffffffffffffffffffffffff1673ffffffffffffffffffffffffffffffffffffffff168152602001908152602001600020600201546104589190611a43565b42101561049a576040517f08c379a0000000000000000000000000000000000000000000000000000000008152600401610491906118ce565b60405180910390fd5b6000600260003373ffffffffffffffffffffffffffffffffffffffff1673ffffffffffffffffffffffffffffffffffffffff1681526020019081526020016000206001015490506000600260003373ffffffffffffffffffffffffffffffffffffffff1673ffffffffffffffffffffffffffffffffffffffff16815260200190815260200160002060020154426105319190611b24565b9050600061053f83836102ea565b9050808361054d9190611a43565b600260003373ffffffffffffffffffffffffffffffffffffffff1673ffffffffffffffffffffffffffffffffffffffff168152602001908152602001600020600001600082825461059e9190611a43565b925050819055506000600260003373ffffffffffffffffffffffffffffffffffffffff1673ffffffffffffffffffffffffffffffffffffffff168152602001908152602001600020600101819055506000600260003373ffffffffffffffffffffffffffffffffffffffff1673ffffffffffffffffffffffffffffffffffffffff16815260200190815260200160002060030160006101000a81548160ff021916908315150217905550826004600082825461065a9190611b24565b925050819055503373ffffffffffffffffffffffffffffffffffffffff167f8db55064b221446e5a0aa0ec0ed4d98a7ef095576d96e4bfe5a37dece403d09384836040516106a99291906119c4565b60405180910390a25050506106bc6111ab565b565b6106c661115b565b60008111610709576040517f08c379a00000000000000000000000000000000000000000000000000000000081526004016107009061184e565b60405180910390fd5b600260003373ffffffffffffffffffffffffffffffffffffffff1673ffffffffffffffffffffffffffffffffffffffff1681526020019081526020016000206000015481111561078e576040517f08c379a00000000000000000000000000000000000000000000000000000000081526004016107859061186e565b60405180910390fd5b600260003373ffffffffffffffffffffffffffffffffffffffff1673ffffffffffffffffffffffffffffffffffffffff16815260200190815260200160002060030160009054906101000a900460ff161561081e576040517f08c379a0000000000000000000000000000000000000000000000000000000008152600401610815906118ae565b60405180910390fd5b80600260003373ffffffffffffffffffffffffffffffffffffffff1673ffffffffffffffffffffffffffffffffffffffff16815260200190815260200160002060000160008282546108709190611b24565b92505081905550600360009054906101000a900473ffffffffffffffffffffffffffffffffffffffff1673ffffffffffffffffffffffffffffffffffffffff1663a9059cbb33836040518363ffffffff1660e01b81526004016108d49291906117ca565b602060405180830381600087803b1580156108ee57600080fd5b505af1158015610902573d6000803e3d6000fd5b505050506040513d601f19601f820116820180604052508101906109269190611315565b610965576040517f08c379a000000000000000000000000000000000000000000000000000000000815260040161095c9061182e565b60405180910390fd5b3373ffffffffffffffffffffffffffffffffffffffff167f7084f5476618d8e60b11ef0d7d3f06914655adb8793e28ff7f018d4c76d505d5826040516109ab91906119a9565b60405180910390a26109bb6111ab565b50565b60055481565b6109cc6110dd565b6109d660006111b5565b565b6109e061115b565b60008111610a23576040517f08c379a0000000000000000000000000000000000000000000000000000000008152600401610a1a9061184e565b60405180910390fd5b600260003373ffffffffffffffffffffffffffffffffffffffff1673ffffffffffffffffffffffffffffffffffffffff16815260200190815260200160002060000154811115610aa8576040517f08c379a0000000000000000000000000000000000000000000000000000000008152600401610a9f9061186e565b60405180910390fd5b600260003373ffffffffffffffffffffffffffffffffffffffff1673ffffffffffffffffffffffffffffffffffffffff16815260200190815260200160002060030160009054906101000a900460ff1615610b38576040517f08c379a0000000000000000000000000000000000000000000000000000000008152600401610b2f9061188e565b60405180910390fd5b80600260003373ffffffffffffffffffffffffffffffffffffffff1673ffffffffffffffffffffffffffffffffffffffff1681526020019081526020016000206000016000828254610b8a9190611b24565b9250508190555080600260003373ffffffffffffffffffffffffffffffffffffffff1673ffffffffffffffffffffffffffffffffffffffff1681526020019081526020016000206001018190555042600260003373ffffffffffffffffffffffffffffffffffffffff1673ffffffffffffffffffffffffffffffffffffffff168152602001908152602001600020600201819055506001600260003373ffffffffffffffffffffffffffffffffffffffff1673ffffffffffffffffffffffffffffffffffffffff16815260200190815260200160002060030160006101000a81548160ff0219169083151502179055508060046000828254610c8c9190611a43565b925050819055503373ffffffffffffffffffffffffffffffffffffffff167f0ce884fb630e2a7bb1c5a766c129f6c8dba0dbac648e0797a0ef704a1114041c82604051610cd991906119a9565b60405180910390a2610ce96111ab565b50565b60065481565b60045481565b6000600160009054906101000a900473ffffffffffffffffffffffffffffffffffffffff16905090565b610d2a611283565b600260008373ffffffffffffffffffffffffffffffffffffffff1673ffffffffffffffffffffffffffffffffffffffff1681526020019081526020016000206040518060800160405290816000820154815260200160018201548152602001600282015481526020016003820160009054906101000a900460ff1615151515815250509050919050565b60026020528060005260406000206000915090508060000154908060010154908060020154908060030160009054906101000a900460ff16905084565b610df961115b565b60008111610e3c576040517f08c379a0000000000000000000000000000000000000000000000000000000008152600401610e339061184e565b60405180910390fd5b600360009054906101000a900473ffffffffffffffffffffffffffffffffffffffff1673ffffffffffffffffffffffffffffffffffffffff166323b872dd3330846040518463ffffffff1660e01b8152600401610e9b93929190611793565b602060405180830381600087803b158015610eb557600080fd5b505af1158015610ec9573d6000803e3d6000fd5b505050506040513d601f19601f82011682018060405250810190610eed9190611315565b610f2c576040517f08c379a0000000000000000000000000000000000000000000000000000000008152600401610f239061182e565b60405180910390fd5b80600260003373ffffffffffffffffffffffffffffffffffffffff1673ffffffffffffffffffffffffffffffffffffffff1681526020019081526020016000206000016000828254610f7e9190611a43565b925050819055503373ffffffffffffffffffffffffffffffffffffffff167f2da466a7b24304f47e87fa2e1e5a81b9831ce54fec19055ce277ca2f39ba42c482604051610fcb91906119a9565b60405180910390a2610fdb6111ab565b50565b610fe66110dd565b60008111611029576040517f08c379a00000000000000000000000000000000000000000000000000000000081526004016110209061192e565b60405180910390fd5b8060058190555050565b61103b6110dd565b600073ffffffffffffffffffffffffffffffffffffffff168173ffffffffffffffffffffffffffffffffffffffff1614156110ab576040517f08c379a00000000000000000000000000000000000000000000000000000000081526004016110a29061180e565b60405180910390fd5b6110b4816111b5565b50565b600360009054906101000a900473ffffffffffffffffffffffffffffffffffffffff1681565b6110e561127b565b73ffffffffffffffffffffffffffffffffffffffff16611103610cf8565b73ffffffffffffffffffffffffffffffffffffffff1614611159576040517f08c379a0000000000000000000000000000000000000000000000000000000008152600401611150906118ee565b60405180910390fd5b565b600260005414156111a1576040517f08c379a00000000000000000000000000000000000000000000000000000000081526004016111989061196e565b60405180910390fd5b6002600081905550565b6001600081905550565b6000600160009054906101000a900473ffffffffffffffffffffffffffffffffffffffff16905081600160006101000a81548173ffffffffffffffffffffffffffffffffffffffff021916908373ffffffffffffffffffffffffffffffffffffffff1602179055508173ffffffffffffffffffffffffffffffffffffffff168173ffffffffffffffffffffffffffffffffffffffff167f8be0079c531659141344cd1fd0a4f28419497f9722a3daafe3b4186f6b6457e060405160405180910390a35050565b600033905090565b60405180608001604052806000815260200160008152602001600081526020016000151581525090565b6000813590506112bc81611c22565b92915050565b6000815190506112d181611c39565b92915050565b6000813590506112e681611c50565b92915050565b6000602082840312156112fe57600080fd5b600061130c848285016112ad565b91505092915050565b60006020828403121561132757600080fd5b6000611335848285016112c2565b91505092915050565b60006020828403121561135057600080fd5b600061135e848285016112d7565b91505092915050565b6000806040838503121561137a57600080fd5b6000611388858286016112d7565b9250506020611399858286016112d7565b9150509250929050565b6113ac81611b58565b82525050565b6113bb81611b6a565b82525050565b6113ca81611b6a565b82525050565b6113d981611ba0565b82525050565b60006113ec602683611a32565b91507f4f776e61626c653a206e6577206f776e657220697320746865207a65726f206160008301527f64647265737300000000000000000000000000000000000000000000000000006020830152604082019050919050565b6000611452600f83611a32565b91507f5472616e73666572206661696c656400000000000000000000000000000000006000830152602082019050919050565b6000611492601d83611a32565b91507f416d6f756e74206d7573742062652067726561746572207468616e20300000006000830152602082019050919050565b60006114d2601483611a32565b91507f496e73756666696369656e742062616c616e63650000000000000000000000006000830152602082019050919050565b6000611512600f83611a32565b91507f416c7265616479207374616b696e6700000000000000000000000000000000006000830152602082019050919050565b6000611552601d83611a32565b91507f43616e6e6f74207769746864726177207768696c65207374616b696e670000006000830152602082019050919050565b6000611592601e83611a32565b91507f4d696e696d756d207374616b696e6720706572696f64206e6f74206d657400006000830152602082019050919050565b60006115d2602083611a32565b91507f4f776e61626c653a2063616c6c6572206973206e6f7420746865206f776e65726000830152602082019050919050565b6000611612600e83611a32565b91507f496e76616c696420706572696f640000000000000000000000000000000000006000830152602082019050919050565b6000611652600c83611a32565b91507f496e76616c6964207261746500000000000000000000000000000000000000006000830152602082019050919050565b6000611692600b83611a32565b91507f4e6f74207374616b696e670000000000000000000000000000000000000000006000830152602082019050919050565b60006116d2601f83611a32565b91507f5265656e7472616e637947756172643a207265656e7472616e742063616c6c006000830152602082019050919050565b60808201600082015161171b600085018261175a565b50602082015161172e602085018261175a565b506040820151611741604085018261175a565b50606082015161175460608501826113b2565b50505050565b61176381611b96565b82525050565b61177281611b96565b82525050565b600060208201905061178d60008301846113a3565b92915050565b60006060820190506117a860008301866113a3565b6117b560208301856113a3565b6117c26040830184611769565b949350505050565b60006040820190506117df60008301856113a3565b6117ec6020830184611769565b9392505050565b600060208201905061180860008301846113d0565b92915050565b60006020820190508181036000830152611827816113df565b9050919050565b6000602082019050818103600083015261184781611445565b9050919050565b6000602082019050818103600083015261186781611485565b9050919050565b60006020820190508181036000830152611887816114c5565b9050919050565b600060208201905081810360008301526118a781611505565b9050919050565b600060208201905081810360008301526118c781611545565b9050919050565b600060208201905081810360008301526118e781611585565b9050919050565b60006020820190508181036000830152611907816115c5565b9050919050565b6000602082019050818103600083015261192781611605565b9050919050565b6000602082019050818103600083015261194781611645565b9050919050565b6000602082019050818103600083015261196781611685565b9050919050565b60006020820190508181036000830152611987816116c5565b9050919050565b60006080820190506119a36000830184611705565b92915050565b60006020820190506119be6000830184611769565b92915050565b60006040820190506119d96000830185611769565b6119e66020830184611769565b9392505050565b6000608082019050611a026000830187611769565b611a0f6020830186611769565b611a1c6040830185611769565b611a2960608301846113c1565b95945050505050565b600082825260208201905092915050565b6000611a4e82611b96565b9150611a5983611b96565b9250827fffffffffffffffffffffffffffffffffffffffffffffffffffffffffffffffff03821115611a8e57611a8d611bc4565b5b828201905092915050565b6000611aa482611b96565b9150611aaf83611b96565b925082611abf57611abe611bf3565b5b828204905092915050565b6000611ad582611b96565b9150611ae083611b96565b9250817fffffffffffffffffffffffffffffffffffffffffffffffffffffffffffffffff0483118215151615611b1957611b18611bc4565b5b828202905092915050565b6000611b2f82611b96565b9150611b3a83611b96565b925082821015611b4d57611b4c611bc4565b5b828203905092915050565b6000611b6382611b76565b9050919050565b60008115159050919050565b600073ffffffffffffffffffffffffffffffffffffffff82169050919050565b6000819050919050565b6000611bab82611bb2565b9050919050565b6000611bbd82611b76565b9050919050565b7f4e487b7100000000000000000000000000000000000000000000000000000000600052601160045260246000fd5b7f4e487b7100000000000000000000000000000000000000000000000000000000600052601260045260246000fd5b611c2b81611b58565b8114611c3657600080fd5b50565b611c4281611b6a565b8114611c4d57600080fd5b50565b611c5981611b96565b8114611c6457600080fd5b5056fea2646970667358221220fb24a47029acb9891caaf8511403451669a785d0bc39fd114ec2ff19f1374ee864736f6c63430008000033",
  "linkReferences": {},
  "deployedLinkReferences": {}
}