{
  "_format": "hh-sol-artifact-1",
  "contractName": "VaultToken",
  "sourceName": "contracts/VaultToken.sol",
  "abi": [
    {
      "inputs": [],
      "stateMutability": "nonpayable",
      "type": "constructor"
    },
    {
      "anonymous": false,
      "inputs": [
        {
          "indexed": true,
          "internalType": "address",
          "name": "owner",
          "type": "address"
        },
        {
          "indexed": true,
          "internalType": "address",
          "name": "spender",
          "type": "address"
        },
        {
          "indexed": false,
          "internalType": "uint256",
          "name": "value",
          "type": "uint256"
        }
      ],
      "name": "Approval",
      "type": "event"
    },
    {
      "anonymous": false,
      "inputs": [
        {
          "indexed": true,
          "internalType": "address",
          "name": "previousOwner",
          "type": "address"
        },
        {
          "indexed": true,
          "internalType": "address",
          "name": "newOwner",
          "type": "address"
        }
      ],
      "name": "OwnershipTransferred",
      "type": "event"
    },
    {
      "anonymous": false,
      "inputs": [
        {
          "indexed": true,
          "internalType": "address",
          "name": "from",
          "type": "address"
        },
        {
          "indexed": true,
          "internalType": "address",
          "name": "to",
          "type": "address"
        },
        {
          "indexed": false,
          "internalType": "uint256",
          "name": "value",
          "type": "uint256"
        }
      ],
      "name": "Transfer",
      "type": "event"
    },
    {
      "inputs": [
        {
          "internalType": "address",
          "name": "owner",
          "type": "address"
        },
        {
          "internalType": "address",
          "name": "spender",
          "type": "address"
        }
      ],
      "name": "allowance",
      "outputs": [
        {
          "internalType": "uint256",
          "name": "",
          "type": "uint256"
        }
      ],
      "stateMutability": "view",
      "type": "function"
    },
    {
      "inputs": [
        {
          "internalType": "address",
          "name": "spender",
          "type": "address"
        },
        {
          "internalType": "uint256",
          "name": "amount",
          "type": "uint256"
        }
      ],
      "name": "approve",
      "outputs": [
        {
          "internalType": "bool",
          "name": "",
          "type": "bool"
        }
      ],
      "stateMutability": "nonpayable",
      "type": "function"
    },
    {
      "inputs": [
        {
          "internalType": "address",
          "name": "account",
          "type": "address"
        }
      ],
      "name": "balanceOf",
      "outputs": [
        {
          "internalType": "uint256",
          "name": "",
          "type": "uint256"
        }
      ],
      "stateMutability": "view",
      "type": "function"
    },
    {
      "inputs": [
        {
          "internalType": "uint256",
          "name": "amount",
          "type": "uint256"
        }
      ],
      "name": "burn",
      "outputs": [],
      "stateMutability": "nonpayable",
      "type": "function"
    },
    {
      "inputs": [],
      "name": "decimals",
      "outputs": [
        {
          "internalType": "uint8",
          "name": "",
          "type": "uint8"
        }
      ],
      "stateMutability": "view",
      "type": "function"
    },
    {
      "inputs": [
        {
          "internalType": "address",
          "name": "spender",
          "type": "address"
        },
        {
          "internalType": "uint256",
          "name": "subtractedValue",
          "type": "uint256"
        }
      ],
      "name": "decreaseAllowance",
      "outputs": [
        {
          "internalType": "bool",
          "name": "",
          "type": "bool"
        }
      ],
      "stateMutability": "nonpayable",
      "type": "function"
    },
    {
      "inputs": [
        {
          "internalType": "address",
          "name": "spender",
          "type": "address"
        },
        {
          "internalType": "uint256",
          "name": "addedValue",
          "type": "uint256"
        }
      ],
      "name": "increaseAllowance",
      "outputs": [
        {
          "internalType": "bool",
          "name": "",
          "type": "bool"
        }
      ],
      "stateMutability": "nonpayable",
      "type": "function"
    },
    {
      "inputs": [
        {
          "internalType": "address",
          "name": "to",
          "type": "address"
        },
        {
          "internalType": "uint256",
          "name": "amount",
          "type": "uint256"
        }
      ],
      "name": "mint",
      "outputs": [],
      "stateMutability": "nonpayable",
      "type": "function"
    },
    {
      "inputs": [],
      "name": "name",
      "outputs": [
        {
          "internalType": "string",
          "name": "",
          "type": "string"
        }
      ],
      "stateMutability": "view",
      "type": "function"
    },
    {
      "inputs": [],
      "name": "owner",
      "outputs": [
        {
          "internalType": "address",
          "name": "",
          "type": "address"
        }
      ],
      "stateMutability": "view",
      "type": "function"
    },
    {
      "inputs": [],
      "name": "renounceOwnership",
      "outputs": [],
      "stateMutability": "nonpayable",
      "type": "function"
    },
    {
      "inputs": [],
      "name": "symbol",
      "outputs": [
        {
          "internalType": "string",
          "name": "",
          "type": "string"
        }
      ],
      "stateMutability": "view",
      "type": "function"
    },
    {
      "inputs": [],
      "name": "totalSupply",
      "outputs": [
        {
          "internalType": "uint256",
          "name": "",
          "type": "uint256"
        }
      ],
      "stateMutability": "view",
      "type": "function"
    },
    {
      "inputs": [
        {
          "internalType": "address",
          "name": "to",
          "type": "address"
        },
        {
          "internalType": "uint256",
          "name": "amount",
          "type": "uint256"
        }
      ],
      "name": "transfer",
      "outputs": [
        {
          "internalType": "bool",
          "name": "",
          "type": "bool"
        }
      ],
      "stateMutability": "nonpayable",
      "type": "function"
    },
    {
      "inputs": [
        {
          "internalType": "address",
          "name": "from",
          "type": "address"
        },
        {
          "internalType": "address",
          "name": "to",
          "type": "address"
        },
        {
          "internalType": "uint256",
          "name": "amount",
          "type": "uint256"
        }
      ],
      "name": "transferFrom",
      "outputs": [
        {
          "internalType": "bool",
          "name": "",
          "type": "bool"
        }
      ],
      "stateMutability": "nonpayable",
      "type": "function"
    },
    {
      "inputs": [
        {
          "internalType": "address",
          "name": "newOwner",
          "type": "address"
        }
      ],
      "name": "transferOwnership",
      "outputs": [],
      "stateMutability": "nonpayable",
      "type": "function"
    }
  ],
  "bytecode": "0x60806040523480156200001157600080fd5b506040518060400160405280601181526020017f43727970746f5661756c7420546f6b656e0000000000000000000000000000008152506040518060400160405280600381526020017f435654000000000000000000000000000000000000000000000000000000000081525081600390805190602001906200009692919062000366565b508060049080519060200190620000af92919062000366565b505050620000d2620000c66200011760201b60201c565b6200011f60201b60201c565b6200011133620000e7620001e560201b60201c565b600a620000f5919062000571565b620f4240620001059190620006ae565b620001ee60201b60201c565b620007c7565b600033905090565b6000600560009054906101000a900473ffffffffffffffffffffffffffffffffffffffff16905081600560006101000a81548173ffffffffffffffffffffffffffffffffffffffff021916908373ffffffffffffffffffffffffffffffffffffffff1602179055508173ffffffffffffffffffffffffffffffffffffffff168173ffffffffffffffffffffffffffffffffffffffff167f8be0079c531659141344cd1fd0a4f28419497f9722a3daafe3b4186f6b6457e060405160405180910390a35050565b60006012905090565b600073ffffffffffffffffffffffffffffffffffffffff168273ffffffffffffffffffffffffffffffffffffffff16141562000261576040517f08c379a0000000000000000000000000000000000000000000000000000000008152600401620002589062000469565b60405180910390fd5b62000275600083836200035c60201b60201c565b8060026000828254620002899190620004b9565b92505081905550806000808473ffffffffffffffffffffffffffffffffffffffff1673ffffffffffffffffffffffffffffffffffffffff168152602001908152602001600020600082825401925050819055508173ffffffffffffffffffffffffffffffffffffffff16600073ffffffffffffffffffffffffffffffffffffffff167fddf252ad1be2c89b69c2b068fc378daa952ba7f163c4a11628f55a4df523b3ef836040516200033c91906200048b565b60405180910390a362000358600083836200036160201b60201c565b5050565b505050565b505050565b828054620003749062000726565b90600052602060002090601f016020900481019282620003985760008555620003e4565b82601f10620003b357805160ff1916838001178555620003e4565b82800160010185558215620003e4579182015b82811115620003e3578251825591602001919060010190620003c6565b5b509050620003f39190620003f7565b5090565b5b8082111562000412576000816000905550600101620003f8565b5090565b600062000425601f83620004a8565b91507f45524332303a206d696e7420746f20746865207a65726f2061646472657373006000830152602082019050919050565b62000463816200070f565b82525050565b60006020820190508181036000830152620004848162000416565b9050919050565b6000602082019050620004a2600083018462000458565b92915050565b600082825260208201905092915050565b6000620004c6826200070f565b9150620004d3836200070f565b9250827fffffffffffffffffffffffffffffffffffffffffffffffffffffffffffffffff038211156200050b576200050a6200075c565b5b828201905092915050565b6000808291508390505b6001851115620005685780860481111562000540576200053f6200075c565b5b6001851615620005505780820291505b80810290506200056085620007ba565b945062000520565b94509492505050565b60006200057e826200070f565b91506200058b8362000719565b9250620005ba7fffffffffffffffffffffffffffffffffffffffffffffffffffffffffffffffff8484620005c2565b905092915050565b600082620005d45760019050620006a7565b81620005e45760009050620006a7565b8160018114620005fd576002811462000608576200063e565b6001915050620006a7565b60ff8411156200061d576200061c6200075c565b5b8360020a9150848211156200063757620006366200075c565b5b50620006a7565b5060208310610133831016604e8410600b8410161715620006785782820a9050838111156200067257620006716200075c565b5b620006a7565b62000687848484600162000516565b92509050818404811115620006a157620006a06200075c565b5b81810290505b9392505050565b6000620006bb826200070f565b9150620006c8836200070f565b9250817fffffffffffffffffffffffffffffffffffffffffffffffffffffffffffffffff04831182151516156200070457620007036200075c565b5b828202905092915050565b6000819050919050565b600060ff82169050919050565b600060028204905060018216806200073f57607f821691505b602082108114156200075657620007556200078b565b5b50919050565b7f4e487b7100000000000000000000000000000000000000000000000000000000600052601160045260246000fd5b7f4e487b7100000000000000000000000000000000000000000000000000000000600052602260045260246000fd5b60008160011c9050919050565b611abc80620007d76000396000f3fe608060405234801561001057600080fd5b50600436106101005760003560e01c806370a0823111610097578063a457c2d711610066578063a457c2d71461029d578063a9059cbb146102cd578063dd62ed3e146102fd578063f2fde38b1461032d57610100565b806370a0823114610227578063715018a6146102575780638da5cb5b1461026157806395d89b411461027f57610100565b8063313ce567116100d3578063313ce567146101a157806339509351146101bf57806340c10f19146101ef57806342966c681461020b57610100565b806306fdde0314610105578063095ea7b31461012357806318160ddd1461015357806323b872dd14610171575b600080fd5b61010d610349565b60405161011a91906116e5565b60405180910390f35b61013d6004803603810190610138919061117f565b6103db565b60405161014a91906116ca565b60405180910390f35b61015b6103fe565b6040516101689190611887565b60405180910390f35b61018b60048036038101906101869190611130565b610408565b60405161019891906116ca565b60405180910390f35b6101a9610437565b6040516101b691906118a2565b60405180910390f35b6101d960048036038101906101d4919061117f565b610440565b6040516101e691906116ca565b60405180910390f35b6102096004803603810190610204919061117f565b610477565b005b610225600480360381019061022091906111bb565b61048d565b005b610241600480360381019061023c91906110cb565b61049a565b60405161024e9190611887565b60405180910390f35b61025f6104e2565b005b6102696104f6565b60405161027691906116af565b60405180910390f35b610287610520565b60405161029491906116e5565b60405180910390f35b6102b760048036038101906102b2919061117f565b6105b2565b6040516102c491906116ca565b60405180910390f35b6102e760048036038101906102e2919061117f565b610629565b6040516102f491906116ca565b60405180910390f35b610317600480360381019061031291906110f4565b61064c565b6040516103249190611887565b60405180910390f35b610347600480360381019061034291906110cb565b6106d3565b005b606060038054610358906119b7565b80601f0160208091040260200160405190810160405280929190818152602001828054610384906119b7565b80156103d15780601f106103a6576101008083540402835291602001916103d1565b820191906000526020600020905b8154815290600101906020018083116103b457829003601f168201915b5050505050905090565b6000806103e6610757565b90506103f381858561075f565b600191505092915050565b6000600254905090565b600080610413610757565b905061042085828561092a565b61042b8585856109b6565b60019150509392505050565b60006012905090565b60008061044b610757565b905061046c81858561045d858961064c565b61046791906118d9565b61075f565b600191505092915050565b61047f610c2e565b6104898282610cac565b5050565b6104973382610e03565b50565b60008060008373ffffffffffffffffffffffffffffffffffffffff1673ffffffffffffffffffffffffffffffffffffffff168152602001908152602001600020549050919050565b6104ea610c2e565b6104f46000610fd1565b565b6000600560009054906101000a900473ffffffffffffffffffffffffffffffffffffffff16905090565b60606004805461052f906119b7565b80601f016020809104026020016040519081016040528092919081815260200182805461055b906119b7565b80156105a85780601f1061057d576101008083540402835291602001916105a8565b820191906000526020600020905b81548152906001019060200180831161058b57829003601f168201915b5050505050905090565b6000806105bd610757565b905060006105cb828661064c565b905083811015610610576040517f08c379a000000000000000000000000000000000000000000000000000000000815260040161060790611847565b60405180910390fd5b61061d828686840361075f565b60019250505092915050565b600080610634610757565b90506106418185856109b6565b600191505092915050565b6000600160008473ffffffffffffffffffffffffffffffffffffffff1673ffffffffffffffffffffffffffffffffffffffff16815260200190815260200160002060008373ffffffffffffffffffffffffffffffffffffffff1673ffffffffffffffffffffffffffffffffffffffff16815260200190815260200160002054905092915050565b6106db610c2e565b600073ffffffffffffffffffffffffffffffffffffffff168173ffffffffffffffffffffffffffffffffffffffff16141561074b576040517f08c379a000000000000000000000000000000000000000000000000000000000815260040161074290611747565b60405180910390fd5b61075481610fd1565b50565b600033905090565b600073ffffffffffffffffffffffffffffffffffffffff168373ffffffffffffffffffffffffffffffffffffffff1614156107cf576040517f08c379a00000000000000000000000000000000000000000000000000000000081526004016107c690611827565b60405180910390fd5b600073ffffffffffffffffffffffffffffffffffffffff168273ffffffffffffffffffffffffffffffffffffffff16141561083f576040517f08c379a000000000000000000000000000000000000000000000000000000000815260040161083690611767565b60405180910390fd5b80600160008573ffffffffffffffffffffffffffffffffffffffff1673ffffffffffffffffffffffffffffffffffffffff16815260200190815260200160002060008473ffffffffffffffffffffffffffffffffffffffff1673ffffffffffffffffffffffffffffffffffffffff168152602001908152602001600020819055508173ffffffffffffffffffffffffffffffffffffffff168373ffffffffffffffffffffffffffffffffffffffff167f8c5be1e5ebec7d5bd14f71427d1e84f3dd0314c0f7b2291e5b200ac8c7c3b9258360405161091d9190611887565b60405180910390a3505050565b6000610936848461064c565b90507fffffffffffffffffffffffffffffffffffffffffffffffffffffffffffffffff81146109b057818110156109a2576040517f08c379a000000000000000000000000000000000000000000000000000000000815260040161099990611787565b60405180910390fd5b6109af848484840361075f565b5b50505050565b600073ffffffffffffffffffffffffffffffffffffffff168373ffffffffffffffffffffffffffffffffffffffff161415610a26576040517f08c379a0000000000000000000000000000000000000000000000000000000008152600401610a1d90611807565b60405180910390fd5b600073ffffffffffffffffffffffffffffffffffffffff168273ffffffffffffffffffffffffffffffffffffffff161415610a96576040517f08c379a0000000000000000000000000000000000000000000000000000000008152600401610a8d90611707565b60405180910390fd5b610aa1838383611097565b60008060008573ffffffffffffffffffffffffffffffffffffffff1673ffffffffffffffffffffffffffffffffffffffff16815260200190815260200160002054905081811015610b27576040517f08c379a0000000000000000000000000000000000000000000000000000000008152600401610b1e906117a7565b60405180910390fd5b8181036000808673ffffffffffffffffffffffffffffffffffffffff1673ffffffffffffffffffffffffffffffffffffffff16815260200190815260200160002081905550816000808573ffffffffffffffffffffffffffffffffffffffff1673ffffffffffffffffffffffffffffffffffffffff168152602001908152602001600020600082825401925050819055508273ffffffffffffffffffffffffffffffffffffffff168473ffffffffffffffffffffffffffffffffffffffff167fddf252ad1be2c89b69c2b068fc378daa952ba7f163c4a11628f55a4df523b3ef84604051610c159190611887565b60405180910390a3610c2884848461109c565b50505050565b610c36610757565b73ffffffffffffffffffffffffffffffffffffffff16610c546104f6565b73ffffffffffffffffffffffffffffffffffffffff1614610caa576040517f08c379a0000000000000000000000000000000000000000000000000000000008152600401610ca1906117c7565b60405180910390fd5b565b600073ffffffffffffffffffffffffffffffffffffffff168273ffffffffffffffffffffffffffffffffffffffff161415610d1c576040517f08c379a0000000000000000000000000000000000000000000000000000000008152600401610d1390611867565b60405180910390fd5b610d2860008383611097565b8060026000828254610d3a91906118d9565b92505081905550806000808473ffffffffffffffffffffffffffffffffffffffff1673ffffffffffffffffffffffffffffffffffffffff168152602001908152602001600020600082825401925050819055508173ffffffffffffffffffffffffffffffffffffffff16600073ffffffffffffffffffffffffffffffffffffffff167fddf252ad1be2c89b69c2b068fc378daa952ba7f163c4a11628f55a4df523b3ef83604051610deb9190611887565b60405180910390a3610dff6000838361109c565b5050565b600073ffffffffffffffffffffffffffffffffffffffff168273ffffffffffffffffffffffffffffffffffffffff161415610e73576040517f08c379a0000000000000000000000000000000000000000000000000000000008152600401610e6a906117e7565b60405180910390fd5b610e7f82600083611097565b60008060008473ffffffffffffffffffffffffffffffffffffffff1673ffffffffffffffffffffffffffffffffffffffff16815260200190815260200160002054905081811015610f05576040517f08c379a0000000000000000000000000000000000000000000000000000000008152600401610efc90611727565b60405180910390fd5b8181036000808573ffffffffffffffffffffffffffffffffffffffff1673ffffffffffffffffffffffffffffffffffffffff1681526020019081526020016000208190555081600260008282540392505081905550600073ffffffffffffffffffffffffffffffffffffffff168373ffffffffffffffffffffffffffffffffffffffff167fddf252ad1be2c89b69c2b068fc378daa952ba7f163c4a11628f55a4df523b3ef84604051610fb89190611887565b60405180910390a3610fcc8360008461109c565b505050565b6000600560009054906101000a900473ffffffffffffffffffffffffffffffffffffffff16905081600560006101000a81548173ffffffffffffffffffffffffffffffffffffffff021916908373ffffffffffffffffffffffffffffffffffffffff1602179055508173ffffffffffffffffffffffffffffffffffffffff168173ffffffffffffffffffffffffffffffffffffffff167f8be0079c531659141344cd1fd0a4f28419497f9722a3daafe3b4186f6b6457e060405160405180910390a35050565b505050565b505050565b6000813590506110b081611a58565b92915050565b6000813590506110c581611a6f565b92915050565b6000602082840312156110dd57600080fd5b60006110eb848285016110a1565b91505092915050565b6000806040838503121561110757600080fd5b6000611115858286016110a1565b9250506020611126858286016110a1565b9150509250929050565b60008060006060848603121561114557600080fd5b6000611153868287016110a1565b9350506020611164868287016110a1565b9250506040611175868287016110b6565b9150509250925092565b6000806040838503121561119257600080fd5b60006111a0858286016110a1565b92505060206111b1858286016110b6565b9150509250929050565b6000602082840312156111cd57600080fd5b60006111db848285016110b6565b91505092915050565b6111ed8161192f565b82525050565b6111fc81611941565b82525050565b600061120d826118bd565b61121781856118c8565b9350611227818560208601611984565b61123081611a47565b840191505092915050565b60006112486023836118c8565b91507f45524332303a207472616e7366657220746f20746865207a65726f206164647260008301527f65737300000000000000000000000000000000000000000000000000000000006020830152604082019050919050565b60006112ae6022836118c8565b91507f45524332303a206275726e20616d6f756e7420657863656564732062616c616e60008301527f63650000000000000000000000000000000000000000000000000000000000006020830152604082019050919050565b60006113146026836118c8565b91507f4f776e61626c653a206e6577206f776e657220697320746865207a65726f206160008301527f64647265737300000000000000000000000000000000000000000000000000006020830152604082019050919050565b600061137a6022836118c8565b91507f45524332303a20617070726f766520746f20746865207a65726f20616464726560008301527f73730000000000000000000000000000000000000000000000000000000000006020830152604082019050919050565b60006113e0601d836118c8565b91507f45524332303a20696e73756666696369656e7420616c6c6f77616e63650000006000830152602082019050919050565b60006114206026836118c8565b91507f45524332303a207472616e7366657220616d6f756e742065786365656473206260008301527f616c616e636500000000000000000000000000000000000000000000000000006020830152604082019050919050565b60006114866020836118c8565b91507f4f776e61626c653a2063616c6c6572206973206e6f7420746865206f776e65726000830152602082019050919050565b60006114c66021836118c8565b91507f45524332303a206275726e2066726f6d20746865207a65726f2061646472657360008301527f73000000000000000000000000000000000000000000000000000000000000006020830152604082019050919050565b600061152c6025836118c8565b91507f45524332303a207472616e736665722066726f6d20746865207a65726f20616460008301527f64726573730000000000000000000000000000000000000000000000000000006020830152604082019050919050565b60006115926024836118c8565b91507f45524332303a20617070726f76652066726f6d20746865207a65726f2061646460008301527f72657373000000000000000000000000000000000000000000000000000000006020830152604082019050919050565b60006115f86025836118c8565b91507f45524332303a2064656372656173656420616c6c6f77616e63652062656c6f7760008301527f207a65726f0000000000000000000000000000000000000000000000000000006020830152604082019050919050565b600061165e601f836118c8565b91507f45524332303a206d696e7420746f20746865207a65726f2061646472657373006000830152602082019050919050565b61169a8161196d565b82525050565b6116a981611977565b82525050565b60006020820190506116c460008301846111e4565b92915050565b60006020820190506116df60008301846111f3565b92915050565b600060208201905081810360008301526116ff8184611202565b905092915050565b600060208201905081810360008301526117208161123b565b9050919050565b60006020820190508181036000830152611740816112a1565b9050919050565b6000602082019050818103600083015261176081611307565b9050919050565b600060208201905081810360008301526117808161136d565b9050919050565b600060208201905081810360008301526117a0816113d3565b9050919050565b600060208201905081810360008301526117c081611413565b9050919050565b600060208201905081810360008301526117e081611479565b9050919050565b60006020820190508181036000830152611800816114b9565b9050919050565b600060208201905081810360008301526118208161151f565b9050919050565b6000602082019050818103600083015261184081611585565b9050919050565b60006020820190508181036000830152611860816115eb565b9050919050565b6000602082019050818103600083015261188081611651565b9050919050565b600060208201905061189c6000830184611691565b92915050565b60006020820190506118b760008301846116a0565b92915050565b600081519050919050565b600082825260208201905092915050565b60006118e48261196d565b91506118ef8361196d565b9250827fffffffffffffffffffffffffffffffffffffffffffffffffffffffffffffffff03821115611924576119236119e9565b5b828201905092915050565b600061193a8261194d565b9050919050565b60008115159050919050565b600073ffffffffffffffffffffffffffffffffffffffff82169050919050565b6000819050919050565b600060ff82169050919050565b60005b838110156119a2578082015181840152602081019050611987565b838111156119b1576000848401525b50505050565b600060028204905060018216806119cf57607f821691505b602082108114156119e3576119e2611a18565b5b50919050565b7f4e487b7100000000000000000000000000000000000000000000000000000000600052601160045260246000fd5b7f4e487b7100000000000000000000000000000000000000000000000000000000600052602260045260246000fd5b6000601f19601f8301169050919050565b611a618161192f565b8114611a6c57600080fd5b50565b611a788161196d565b8114611a8357600080fd5b5056fea264697066735822122057139c54b5b52e6fe0c44de18e75766fd4f1d62dcaafac5715b507a3dd35aa6b64736f6c63430008000033",
  "linkReferences": {},
  "deployedLinkReferences": {}
}